{
  "address": "0x423b866328a0910ee8982347e024546810abac7d",
  "abi": [
    {
      "inputs": [
        {
          "internalType": "string",
          "name": "baseURI",
          "type": "string"
        },
        {
          "internalType": "address",
          "name": "whitelistContract",
          "type": "address"
        }
      ],
      "stateMutability": "nonpayable",
      "type": "constructor"
    },
    {
      "anonymous": false,
      "inputs": [
        {
          "indexed": true,
          "internalType": "address",
          "name": "owner",
          "type": "address"
        },
        {
          "indexed": true,
          "internalType": "address",
          "name": "approved",
          "type": "address"
        },
        {
          "indexed": true,
          "internalType": "uint256",
          "name": "tokenId",
          "type": "uint256"
        }
      ],
      "name": "Approval",
      "type": "event"
    },
    {
      "anonymous": false,
      "inputs": [
        {
          "indexed": true,
          "internalType": "address",
          "name": "owner",
          "type": "address"
        },
        {
          "indexed": true,
          "internalType": "address",
          "name": "operator",
          "type": "address"
        },
        {
          "indexed": false,
          "internalType": "bool",
          "name": "approved",
          "type": "bool"
        }
      ],
      "name": "ApprovalForAll",
      "type": "event"
    },
    {
      "anonymous": false,
      "inputs": [
        {
          "indexed": true,
          "internalType": "address",
          "name": "userAddress",
          "type": "address"
        },
        {
          "indexed": true,
          "internalType": "uint256",
          "name": "tokenId",
          "type": "uint256"
        }
      ],
      "name": "Mint",
      "type": "event"
    },
    {
      "anonymous": false,
      "inputs": [
        {
          "indexed": true,
          "internalType": "address",
          "name": "previousOwner",
          "type": "address"
        },
        {
          "indexed": true,
          "internalType": "address",
          "name": "newOwner",
          "type": "address"
        }
      ],
      "name": "OwnershipTransferred",
      "type": "event"
    },
    {
      "anonymous": false,
      "inputs": [
        {
          "indexed": true,
          "internalType": "address",
          "name": "userAddress",
          "type": "address"
        },
        {
          "indexed": true,
          "internalType": "uint256",
          "name": "tokenId",
          "type": "uint256"
        }
      ],
      "name": "PresaleMint",
      "type": "event"
    },
    {
      "anonymous": false,
      "inputs": [],
      "name": "SetPaused",
      "type": "event"
    },
    {
      "anonymous": false,
      "inputs": [
        {
          "indexed": true,
          "internalType": "uint256",
          "name": "presaleEnded",
          "type": "uint256"
        }
      ],
      "name": "StartPresale",
      "type": "event"
    },
    {
      "anonymous": false,
      "inputs": [
        {
          "indexed": true,
          "internalType": "address",
          "name": "from",
          "type": "address"
        },
        {
          "indexed": true,
          "internalType": "address",
          "name": "to",
          "type": "address"
        },
        {
          "indexed": true,
          "internalType": "uint256",
          "name": "tokenId",
          "type": "uint256"
        }
      ],
      "name": "Transfer",
      "type": "event"
    },
    {
      "anonymous": false,
      "inputs": [
        {
          "indexed": true,
          "internalType": "uint256",
          "name": "amount",
          "type": "uint256"
        }
      ],
      "name": "Withdraw",
      "type": "event"
    },
    {
      "stateMutability": "payable",
      "type": "fallback"
    },
    {
      "inputs": [],
      "name": "_paused",
      "outputs": [
        {
          "internalType": "bool",
          "name": "",
          "type": "bool"
        }
      ],
      "stateMutability": "view",
      "type": "function"
    },
    {
      "inputs": [],
      "name": "_price",
      "outputs": [
        {
          "internalType": "uint256",
          "name": "",
          "type": "uint256"
        }
      ],
      "stateMutability": "view",
      "type": "function"
    },
    {
      "inputs": [
        {
          "internalType": "address",
          "name": "to",
          "type": "address"
        },
        {
          "internalType": "uint256",
          "name": "tokenId",
          "type": "uint256"
        }
      ],
      "name": "approve",
      "outputs": [],
      "stateMutability": "nonpayable",
      "type": "function"
    },
    {
      "inputs": [
        {
          "internalType": "address",
          "name": "owner",
          "type": "address"
        }
      ],
      "name": "balanceOf",
      "outputs": [
        {
          "internalType": "uint256",
          "name": "balance",
          "type": "uint256"
        }
      ],
      "stateMutability": "view",
      "type": "function"
    },
    {
      "inputs": [
        {
          "internalType": "uint256",
          "name": "tokenId",
          "type": "uint256"
        }
      ],
      "name": "getApproved",
      "outputs": [
        {
          "internalType": "address",
          "name": "",
          "type": "address"
        }
      ],
      "stateMutability": "view",
      "type": "function"
    },
    {
      "inputs": [
        {
          "internalType": "address",
          "name": "owner",
          "type": "address"
        },
        {
          "internalType": "address",
          "name": "operator",
          "type": "address"
        }
      ],
      "name": "isApprovedForAll",
      "outputs": [
        {
          "internalType": "bool",
          "name": "",
          "type": "bool"
        }
      ],
      "stateMutability": "view",
      "type": "function"
    },
    {
      "inputs": [],
      "name": "maxTokenIds",
      "outputs": [
        {
          "internalType": "uint256",
          "name": "",
          "type": "uint256"
        }
      ],
      "stateMutability": "view",
      "type": "function"
    },
    {
      "inputs": [],
      "name": "mint",
      "outputs": [],
      "stateMutability": "payable",
      "type": "function"
    },
    {
      "inputs": [],
      "name": "name",
      "outputs": [
        {
          "internalType": "string",
          "name": "",
          "type": "string"
        }
      ],
      "stateMutability": "view",
      "type": "function"
    },
    {
      "inputs": [],
      "name": "owner",
      "outputs": [
        {
          "internalType": "address",
          "name": "",
          "type": "address"
        }
      ],
      "stateMutability": "view",
      "type": "function"
    },
    {
      "inputs": [
        {
          "internalType": "uint256",
          "name": "tokenId",
          "type": "uint256"
        }
      ],
      "name": "ownerOf",
      "outputs": [
        {
          "internalType": "address",
          "name": "",
          "type": "address"
        }
      ],
      "stateMutability": "view",
      "type": "function"
    },
    {
      "inputs": [],
      "name": "presaleEnded",
      "outputs": [
        {
          "internalType": "uint256",
          "name": "",
          "type": "uint256"
        }
      ],
      "stateMutability": "view",
      "type": "function"
    },
    {
      "inputs": [],
      "name": "presaleMint",
      "outputs": [],
      "stateMutability": "payable",
      "type": "function"
    },
    {
      "inputs": [],
      "name": "presaleStarted",
      "outputs": [
        {
          "internalType": "bool",
          "name": "",
          "type": "bool"
        }
      ],
      "stateMutability": "view",
      "type": "function"
    },
    {
      "inputs": [],
      "name": "renounceOwnership",
      "outputs": [],
      "stateMutability": "nonpayable",
      "type": "function"
    },
    {
      "inputs": [
        {
          "internalType": "address",
          "name": "from",
          "type": "address"
        },
        {
          "internalType": "address",
          "name": "to",
          "type": "address"
        },
        {
          "internalType": "uint256",
          "name": "tokenId",
          "type": "uint256"
        }
      ],
      "name": "safeTransferFrom",
      "outputs": [],
      "stateMutability": "nonpayable",
      "type": "function"
    },
    {
      "inputs": [
        {
          "internalType": "address",
          "name": "from",
          "type": "address"
        },
        {
          "internalType": "address",
          "name": "to",
          "type": "address"
        },
        {
          "internalType": "uint256",
          "name": "tokenId",
          "type": "uint256"
        },
        {
          "internalType": "bytes",
          "name": "data",
          "type": "bytes"
        }
      ],
      "name": "safeTransferFrom",
      "outputs": [],
      "stateMutability": "nonpayable",
      "type": "function"
    },
    {
      "inputs": [
        {
          "internalType": "address",
          "name": "operator",
          "type": "address"
        },
        {
          "internalType": "bool",
          "name": "approved",
          "type": "bool"
        }
      ],
      "name": "setApprovalForAll",
      "outputs": [],
      "stateMutability": "nonpayable",
      "type": "function"
    },
    {
      "inputs": [
        {
          "internalType": "bool",
          "name": "val",
          "type": "bool"
        }
      ],
      "name": "setPaused",
      "outputs": [],
      "stateMutability": "nonpayable",
      "type": "function"
    },
    {
      "inputs": [],
      "name": "startPresale",
      "outputs": [],
      "stateMutability": "nonpayable",
      "type": "function"
    },
    {
      "inputs": [
        {
          "internalType": "bytes4",
          "name": "interfaceId",
          "type": "bytes4"
        }
      ],
      "name": "supportsInterface",
      "outputs": [
        {
          "internalType": "bool",
          "name": "",
          "type": "bool"
        }
      ],
      "stateMutability": "view",
      "type": "function"
    },
    {
      "inputs": [],
      "name": "symbol",
      "outputs": [
        {
          "internalType": "string",
          "name": "",
          "type": "string"
        }
      ],
      "stateMutability": "view",
      "type": "function"
    },
    {
      "inputs": [
        {
          "internalType": "uint256",
          "name": "index",
          "type": "uint256"
        }
      ],
      "name": "tokenByIndex",
      "outputs": [
        {
          "internalType": "uint256",
          "name": "",
          "type": "uint256"
        }
      ],
      "stateMutability": "view",
      "type": "function"
    },
    {
      "inputs": [],
      "name": "tokenIds",
      "outputs": [
        {
          "internalType": "uint256",
          "name": "",
          "type": "uint256"
        }
      ],
      "stateMutability": "view",
      "type": "function"
    },
    {
      "inputs": [
        {
          "internalType": "address",
          "name": "owner",
          "type": "address"
        },
        {
          "internalType": "uint256",
          "name": "index",
          "type": "uint256"
        }
      ],
      "name": "tokenOfOwnerByIndex",
      "outputs": [
        {
          "internalType": "uint256",
          "name": "tokenId",
          "type": "uint256"
        }
      ],
      "stateMutability": "view",
      "type": "function"
    },
    {
      "inputs": [
        {
          "internalType": "uint256",
          "name": "tokenId",
          "type": "uint256"
        }
      ],
      "name": "tokenURI",
      "outputs": [
        {
          "internalType": "string",
          "name": "",
          "type": "string"
        }
      ],
      "stateMutability": "view",
      "type": "function"
    },
    {
      "inputs": [],
      "name": "totalSupply",
      "outputs": [
        {
          "internalType": "uint256",
          "name": "",
          "type": "uint256"
        }
      ],
      "stateMutability": "view",
      "type": "function"
    },
    {
      "inputs": [
        {
          "internalType": "address",
          "name": "from",
          "type": "address"
        },
        {
          "internalType": "address",
          "name": "to",
          "type": "address"
        },
        {
          "internalType": "uint256",
          "name": "tokenId",
          "type": "uint256"
        }
      ],
      "name": "transferFrom",
      "outputs": [],
      "stateMutability": "nonpayable",
      "type": "function"
    },
    {
      "inputs": [
        {
          "internalType": "address",
          "name": "newOwner",
          "type": "address"
        }
      ],
      "name": "transferOwnership",
      "outputs": [],
      "stateMutability": "nonpayable",
      "type": "function"
    },
    {
      "inputs": [],
      "name": "whitelist",
      "outputs": [
        {
          "internalType": "contract IWhitelist",
          "name": "",
          "type": "address"
        }
      ],
      "stateMutability": "view",
      "type": "function"
    },
    {
      "inputs": [],
      "name": "withdraw",
      "outputs": [],
      "stateMutability": "nonpayable",
      "type": "function"
    },
    {
      "stateMutability": "payable",
      "type": "receive"
    }
  ],
  "transactionHash": "0x887a8aa2d5a9fd09fff72975a573b9e537a7822c975ead941e075ca434a3b392",
  "args": [
    "https://ipfs.io/ipfs/QmaPzMSxXnNzh22A4XmSUpfenV56SjLeFQ1Kjtn5Q1i2SE",
    "0x5553d5d82e9a8d004a34f3ed84f692955e5e21b2"
  ],
  "numDeployments": 1,
  "solcInputHash": "062619af8e05f9c5cfa593d45c6ebed6",
  "bytecode": "0x6080604052662386f26fc10000600c556014600e553480156200002157600080fd5b50604051620048eb380380620048eb83398181016040528101906200004791906200041a565b6040518060400160405280600781526020017f544b2044657673000000000000000000000000000000000000000000000000008152506040518060400160405280600281526020017f544b0000000000000000000000000000000000000000000000000000000000008152508160009081620000c49190620006cb565b508060019081620000d69190620006cb565b505050620000f9620000ed6200015460201b60201c565b6200015c60201b60201c565b81600b90816200010a9190620006cb565b5080601060006101000a81548173ffffffffffffffffffffffffffffffffffffffff021916908373ffffffffffffffffffffffffffffffffffffffff1602179055505050620007b2565b600033905090565b6000600a60009054906101000a900473ffffffffffffffffffffffffffffffffffffffff16905081600a60006101000a81548173ffffffffffffffffffffffffffffffffffffffff021916908373ffffffffffffffffffffffffffffffffffffffff1602179055508173ffffffffffffffffffffffffffffffffffffffff168173ffffffffffffffffffffffffffffffffffffffff167f8be0079c531659141344cd1fd0a4f28419497f9722a3daafe3b4186f6b6457e060405160405180910390a35050565b6000604051905090565b600080fd5b600080fd5b600080fd5b600080fd5b6000601f19601f8301169050919050565b7f4e487b7100000000000000000000000000000000000000000000000000000000600052604160045260246000fd5b6200028b8262000240565b810181811067ffffffffffffffff82111715620002ad57620002ac62000251565b5b80604052505050565b6000620002c262000222565b9050620002d0828262000280565b919050565b600067ffffffffffffffff821115620002f357620002f262000251565b5b620002fe8262000240565b9050602081019050919050565b60005b838110156200032b5780820151818401526020810190506200030e565b60008484015250505050565b60006200034e6200034884620002d5565b620002b6565b9050828152602081018484840111156200036d576200036c6200023b565b5b6200037a8482856200030b565b509392505050565b600082601f8301126200039a576200039962000236565b5b8151620003ac84826020860162000337565b91505092915050565b600073ffffffffffffffffffffffffffffffffffffffff82169050919050565b6000620003e282620003b5565b9050919050565b620003f481620003d5565b81146200040057600080fd5b50565b6000815190506200041481620003e9565b92915050565b600080604083850312156200043457620004336200022c565b5b600083015167ffffffffffffffff81111562000455576200045462000231565b5b620004638582860162000382565b9250506020620004768582860162000403565b9150509250929050565b600081519050919050565b7f4e487b7100000000000000000000000000000000000000000000000000000000600052602260045260246000fd5b60006002820490506001821680620004d357607f821691505b602082108103620004e957620004e86200048b565b5b50919050565b60008190508160005260206000209050919050565b60006020601f8301049050919050565b600082821b905092915050565b600060088302620005537fffffffffffffffffffffffffffffffffffffffffffffffffffffffffffffffff8262000514565b6200055f868362000514565b95508019841693508086168417925050509392505050565b6000819050919050565b6000819050919050565b6000620005ac620005a6620005a08462000577565b62000581565b62000577565b9050919050565b6000819050919050565b620005c8836200058b565b620005e0620005d782620005b3565b84845462000521565b825550505050565b600090565b620005f7620005e8565b62000604818484620005bd565b505050565b5b818110156200062c5762000620600082620005ed565b6001810190506200060a565b5050565b601f8211156200067b576200064581620004ef565b620006508462000504565b8101602085101562000660578190505b620006786200066f8562000504565b83018262000609565b50505b505050565b600082821c905092915050565b6000620006a06000198460080262000680565b1980831691505092915050565b6000620006bb83836200068d565b9150826002028217905092915050565b620006d68262000480565b67ffffffffffffffff811115620006f257620006f162000251565b5b620006fe8254620004ba565b6200070b82828562000630565b600060209050601f8311600181146200074357600084156200072e578287015190505b6200073a8582620006ad565b865550620007aa565b601f1984166200075386620004ef565b60005b828110156200077d5784890151825560018201915060208501945060208101905062000756565b868310156200079d578489015162000799601f8916826200068d565b8355505b6001600288020188555050505b505050505050565b61412980620007c26000396000f3fe6080604052600436106101dc5760003560e01c80634f6ccce71161010257806393e59dc111610095578063c87b56dd11610064578063c87b56dd14610650578063e580b2b01461068d578063e985e9c5146106b8578063f2fde38b146106f5576101e3565b806393e59dc1146105a857806395d89b41146105d3578063a22cb465146105fe578063b88d4fde14610627576101e3565b806370a08231116100d157806370a08231146104fe578063714cff561461053b578063715018a6146105665780638da5cb5b1461057d576101e3565b80634f6ccce71461044f57806359533d6c1461048c5780635f769621146104965780636352211e146104c1576101e3565b806316c38b3c1161017a57806323b872dd1161014957806323b872dd146103a95780632f745c59146103d25780633ccfd60b1461040f57806342842e0e14610426576101e3565b806316c38b3c146102ff57806316c61ccc1461032857806318160ddd14610353578063235b6ea11461037e576101e3565b806306fdde03116101b657806306fdde0314610264578063081812fc1461028f578063095ea7b3146102cc5780631249c58b146102f5576101e3565b806301ffc9a7146101e557806304549d6f1461022257806304c98b2b1461024d576101e3565b366101e357005b005b3480156101f157600080fd5b5061020c60048036038101906102079190612bed565b61071e565b6040516102199190612c35565b60405180910390f35b34801561022e57600080fd5b50610237610798565b6040516102449190612c35565b60405180910390f35b34801561025957600080fd5b506102626107ab565b005b34801561027057600080fd5b50610279610813565b6040516102869190612ce0565b60405180910390f35b34801561029b57600080fd5b506102b660048036038101906102b19190612d38565b6108a5565b6040516102c39190612da6565b60405180910390f35b3480156102d857600080fd5b506102f360048036038101906102ee9190612ded565b6108eb565b005b6102fd610a02565b005b34801561030b57600080fd5b5061032660048036038101906103219190612e59565b610ba8565b005b34801561033457600080fd5b5061033d610bf9565b60405161034a9190612c35565b60405180910390f35b34801561035f57600080fd5b50610368610c0c565b6040516103759190612e95565b60405180910390f35b34801561038a57600080fd5b50610393610c19565b6040516103a09190612e95565b60405180910390f35b3480156103b557600080fd5b506103d060048036038101906103cb9190612eb0565b610c1f565b005b3480156103de57600080fd5b506103f960048036038101906103f49190612ded565b610c7f565b6040516104069190612e95565b60405180910390f35b34801561041b57600080fd5b50610424610c93565b005b34801561043257600080fd5b5061044d60048036038101906104489190612eb0565b610d8a565b005b34801561045b57600080fd5b5061047660048036038101906104719190612d38565b610daa565b6040516104839190612e95565b60405180910390f35b610494610e1b565b005b3480156104a257600080fd5b506104ab61109b565b6040516104b89190612e95565b60405180910390f35b3480156104cd57600080fd5b506104e860048036038101906104e39190612d38565b6110a1565b6040516104f59190612da6565b60405180910390f35b34801561050a57600080fd5b5061052560048036038101906105209190612f03565b611127565b6040516105329190612e95565b60405180910390f35b34801561054757600080fd5b50610550611139565b60405161055d9190612e95565b60405180910390f35b34801561057257600080fd5b5061057b61113f565b005b34801561058957600080fd5b50610592611153565b60405161059f9190612da6565b60405180910390f35b3480156105b457600080fd5b506105bd61117d565b6040516105ca9190612f8f565b60405180910390f35b3480156105df57600080fd5b506105e86111a3565b6040516105f59190612ce0565b60405180910390f35b34801561060a57600080fd5b5061062560048036038101906106209190612faa565b611235565b005b34801561063357600080fd5b5061064e6004803603810190610649919061311f565b61124b565b005b34801561065c57600080fd5b5061067760048036038101906106729190612d38565b6112ad565b6040516106849190612ce0565b60405180910390f35b34801561069957600080fd5b506106a2611315565b6040516106af9190612e95565b60405180910390f35b3480156106c457600080fd5b506106df60048036038101906106da91906131a2565b61131b565b6040516106ec9190612c35565b60405180910390f35b34801561070157600080fd5b5061071c60048036038101906107179190612f03565b6113af565b005b60007f780e9d63000000000000000000000000000000000000000000000000000000007bffffffffffffffffffffffffffffffffffffffffffffffffffffffff1916827bffffffffffffffffffffffffffffffffffffffffffffffffffffffff19161480610791575061079082611432565b5b9050919050565b601060149054906101000a900460ff1681565b6107b3611514565b6001601060146101000a81548160ff02191690831515021790555061012c426107dc9190613211565b6011819055506011547fb38e543101f6d6cc2ca823d514b2238845ceccf332da3d4a313b7e9e5eeae4ff60405160405180910390a2565b60606000805461082290613274565b80601f016020809104026020016040519081016040528092919081815260200182805461084e90613274565b801561089b5780601f106108705761010080835404028352916020019161089b565b820191906000526020600020905b81548152906001019060200180831161087e57829003601f168201915b5050505050905090565b60006108b082611592565b6004600083815260200190815260200160002060009054906101000a900473ffffffffffffffffffffffffffffffffffffffff169050919050565b60006108f6826110a1565b90508073ffffffffffffffffffffffffffffffffffffffff168373ffffffffffffffffffffffffffffffffffffffff1603610966576040517f08c379a000000000000000000000000000000000000000000000000000000000815260040161095d90613317565b60405180910390fd5b8073ffffffffffffffffffffffffffffffffffffffff166109856115dd565b73ffffffffffffffffffffffffffffffffffffffff1614806109b457506109b3816109ae6115dd565b61131b565b5b6109f3576040517f08c379a00000000000000000000000000000000000000000000000000000000081526004016109ea906133a9565b60405180910390fd5b6109fd83836115e5565b505050565b600d60009054906101000a900460ff1615610a52576040517f08c379a0000000000000000000000000000000000000000000000000000000008152600401610a4990613415565b60405180910390fd5b601060149054906101000a900460ff168015610a7057506011544210155b610aaf576040517f08c379a0000000000000000000000000000000000000000000000000000000008152600401610aa690613481565b60405180910390fd5b600e54600f5410610af5576040517f08c379a0000000000000000000000000000000000000000000000000000000008152600401610aec906134ed565b60405180910390fd5b600c54341015610b3a576040517f08c379a0000000000000000000000000000000000000000000000000000000008152600401610b3190613559565b60405180910390fd5b6001600f6000828254610b4d9190613211565b92505081905550610b6033600f5461169e565b600f543373ffffffffffffffffffffffffffffffffffffffff167f0f6798a560793a54c3bcfe86a93cde1e73087d944c0ea20544137d412139688560405160405180910390a3565b610bb0611514565b80600d60006101000a81548160ff0219169083151502179055507fa925ea6a6038b86d80c8788ad0fd3ac3c29cd9d064ddd597b98971fe0a2aeac160405160405180910390a150565b600d60009054906101000a900460ff1681565b6000600880549050905090565b600c5481565b610c30610c2a6115dd565b826116bc565b610c6f576040517f08c379a0000000000000000000000000000000000000000000000000000000008152600401610c66906135eb565b60405180910390fd5b610c7a838383611751565b505050565b6000610c8b8383611a4a565b905092915050565b610c9b611514565b6000610ca5611153565b9050600047905060008273ffffffffffffffffffffffffffffffffffffffff1682604051610cd29061363c565b60006040518083038185875af1925050503d8060008114610d0f576040519150601f19603f3d011682016040523d82523d6000602084013e610d14565b606091505b5050905080610d58576040517f08c379a0000000000000000000000000000000000000000000000000000000008152600401610d4f9061369d565b60405180910390fd5b817f5b6b431d4476a211bb7d41c20d1aab9ae2321deee0d20be3d9fc9b1093fa6e3d60405160405180910390a2505050565b610da58383836040518060200160405280600081525061124b565b505050565b6000610db4610c0c565b8210610df5576040517f08c379a0000000000000000000000000000000000000000000000000000000008152600401610dec9061372f565b60405180910390fd5b60088281548110610e0957610e0861374f565b5b90600052602060002001549050919050565b600d60009054906101000a900460ff1615610e6b576040517f08c379a0000000000000000000000000000000000000000000000000000000008152600401610e6290613415565b60405180910390fd5b601060149054906101000a900460ff168015610e88575060115442105b610ec7576040517f08c379a0000000000000000000000000000000000000000000000000000000008152600401610ebe906137ca565b60405180910390fd5b601060009054906101000a900473ffffffffffffffffffffffffffffffffffffffff1673ffffffffffffffffffffffffffffffffffffffff166306c933d8336040518263ffffffff1660e01b8152600401610f229190612da6565b602060405180830381865afa158015610f3f573d6000803e3d6000fd5b505050506040513d601f19601f82011682018060405250810190610f6391906137ff565b610fa2576040517f08c379a0000000000000000000000000000000000000000000000000000000008152600401610f9990613878565b60405180910390fd5b600e54600f5410610fe8576040517f08c379a0000000000000000000000000000000000000000000000000000000008152600401610fdf906138e4565b60405180910390fd5b600c5434101561102d576040517f08c379a000000000000000000000000000000000000000000000000000000000815260040161102490613559565b60405180910390fd5b6001600f60008282546110409190613211565b9250508190555061105333600f5461169e565b600f543373ffffffffffffffffffffffffffffffffffffffff167ff5df7d07fef0d8ac7581015ebd1a3b7b7760da84b12f0c8174ae0dcd639cb6a360405160405180910390a3565b600e5481565b6000806110ad83611aef565b9050600073ffffffffffffffffffffffffffffffffffffffff168173ffffffffffffffffffffffffffffffffffffffff160361111e576040517f08c379a000000000000000000000000000000000000000000000000000000000815260040161111590613950565b60405180910390fd5b80915050919050565b600061113282611b2c565b9050919050565b600f5481565b611147611514565b6111516000611be3565b565b6000600a60009054906101000a900473ffffffffffffffffffffffffffffffffffffffff16905090565b601060009054906101000a900473ffffffffffffffffffffffffffffffffffffffff1681565b6060600180546111b290613274565b80601f01602080910402602001604051908101604052809291908181526020018280546111de90613274565b801561122b5780601f106112005761010080835404028352916020019161122b565b820191906000526020600020905b81548152906001019060200180831161120e57829003601f168201915b5050505050905090565b6112476112406115dd565b8383611ca9565b5050565b61125c6112566115dd565b836116bc565b61129b576040517f08c379a0000000000000000000000000000000000000000000000000000000008152600401611292906135eb565b60405180910390fd5b6112a784848484611e15565b50505050565b60606112b882611592565b60006112c2611e71565b905060008151116112e2576040518060200160405280600081525061130d565b806112ec84611f03565b6040516020016112fd9291906139ac565b6040516020818303038152906040525b915050919050565b60115481565b6000600560008473ffffffffffffffffffffffffffffffffffffffff1673ffffffffffffffffffffffffffffffffffffffff16815260200190815260200160002060008373ffffffffffffffffffffffffffffffffffffffff1673ffffffffffffffffffffffffffffffffffffffff16815260200190815260200160002060009054906101000a900460ff16905092915050565b6113b7611514565b600073ffffffffffffffffffffffffffffffffffffffff168173ffffffffffffffffffffffffffffffffffffffff1603611426576040517f08c379a000000000000000000000000000000000000000000000000000000000815260040161141d90613a42565b60405180910390fd5b61142f81611be3565b50565b60007f80ac58cd000000000000000000000000000000000000000000000000000000007bffffffffffffffffffffffffffffffffffffffffffffffffffffffff1916827bffffffffffffffffffffffffffffffffffffffffffffffffffffffff191614806114fd57507f5b5e139f000000000000000000000000000000000000000000000000000000007bffffffffffffffffffffffffffffffffffffffffffffffffffffffff1916827bffffffffffffffffffffffffffffffffffffffffffffffffffffffff1916145b8061150d575061150c82611fd1565b5b9050919050565b61151c6115dd565b73ffffffffffffffffffffffffffffffffffffffff1661153a611153565b73ffffffffffffffffffffffffffffffffffffffff1614611590576040517f08c379a000000000000000000000000000000000000000000000000000000000815260040161158790613aae565b60405180910390fd5b565b61159b8161203b565b6115da576040517f08c379a00000000000000000000000000000000000000000000000000000000081526004016115d190613950565b60405180910390fd5b50565b600033905090565b816004600083815260200190815260200160002060006101000a81548173ffffffffffffffffffffffffffffffffffffffff021916908373ffffffffffffffffffffffffffffffffffffffff160217905550808273ffffffffffffffffffffffffffffffffffffffff16611658836110a1565b73ffffffffffffffffffffffffffffffffffffffff167f8c5be1e5ebec7d5bd14f71427d1e84f3dd0314c0f7b2291e5b200ac8c7c3b92560405160405180910390a45050565b6116b882826040518060200160405280600081525061207c565b5050565b6000806116c8836110a1565b90508073ffffffffffffffffffffffffffffffffffffffff168473ffffffffffffffffffffffffffffffffffffffff16148061170a5750611709818561131b565b5b8061174857508373ffffffffffffffffffffffffffffffffffffffff16611730846108a5565b73ffffffffffffffffffffffffffffffffffffffff16145b91505092915050565b8273ffffffffffffffffffffffffffffffffffffffff16611771826110a1565b73ffffffffffffffffffffffffffffffffffffffff16146117c7576040517f08c379a00000000000000000000000000000000000000000000000000000000081526004016117be90613b40565b60405180910390fd5b600073ffffffffffffffffffffffffffffffffffffffff168273ffffffffffffffffffffffffffffffffffffffff1603611836576040517f08c379a000000000000000000000000000000000000000000000000000000000815260040161182d90613bd2565b60405180910390fd5b61184383838360016120d7565b8273ffffffffffffffffffffffffffffffffffffffff16611863826110a1565b73ffffffffffffffffffffffffffffffffffffffff16146118b9576040517f08c379a00000000000000000000000000000000000000000000000000000000081526004016118b090613b40565b60405180910390fd5b6004600082815260200190815260200160002060006101000a81549073ffffffffffffffffffffffffffffffffffffffff02191690556001600360008573ffffffffffffffffffffffffffffffffffffffff1673ffffffffffffffffffffffffffffffffffffffff168152602001908152602001600020600082825403925050819055506001600360008473ffffffffffffffffffffffffffffffffffffffff1673ffffffffffffffffffffffffffffffffffffffff16815260200190815260200160002060008282540192505081905550816002600083815260200190815260200160002060006101000a81548173ffffffffffffffffffffffffffffffffffffffff021916908373ffffffffffffffffffffffffffffffffffffffff160217905550808273ffffffffffffffffffffffffffffffffffffffff168473ffffffffffffffffffffffffffffffffffffffff167fddf252ad1be2c89b69c2b068fc378daa952ba7f163c4a11628f55a4df523b3ef60405160405180910390a4611a458383836001612235565b505050565b6000611a5583611b2c565b8210611a96576040517f08c379a0000000000000000000000000000000000000000000000000000000008152600401611a8d90613c64565b60405180910390fd5b600660008473ffffffffffffffffffffffffffffffffffffffff1673ffffffffffffffffffffffffffffffffffffffff168152602001908152602001600020600083815260200190815260200160002054905092915050565b60006002600083815260200190815260200160002060009054906101000a900473ffffffffffffffffffffffffffffffffffffffff169050919050565b60008073ffffffffffffffffffffffffffffffffffffffff168273ffffffffffffffffffffffffffffffffffffffff1603611b9c576040517f08c379a0000000000000000000000000000000000000000000000000000000008152600401611b9390613cf6565b60405180910390fd5b600360008373ffffffffffffffffffffffffffffffffffffffff1673ffffffffffffffffffffffffffffffffffffffff168152602001908152602001600020549050919050565b6000600a60009054906101000a900473ffffffffffffffffffffffffffffffffffffffff16905081600a60006101000a81548173ffffffffffffffffffffffffffffffffffffffff021916908373ffffffffffffffffffffffffffffffffffffffff1602179055508173ffffffffffffffffffffffffffffffffffffffff168173ffffffffffffffffffffffffffffffffffffffff167f8be0079c531659141344cd1fd0a4f28419497f9722a3daafe3b4186f6b6457e060405160405180910390a35050565b8173ffffffffffffffffffffffffffffffffffffffff168373ffffffffffffffffffffffffffffffffffffffff1603611d17576040517f08c379a0000000000000000000000000000000000000000000000000000000008152600401611d0e90613d62565b60405180910390fd5b80600560008573ffffffffffffffffffffffffffffffffffffffff1673ffffffffffffffffffffffffffffffffffffffff16815260200190815260200160002060008473ffffffffffffffffffffffffffffffffffffffff1673ffffffffffffffffffffffffffffffffffffffff16815260200190815260200160002060006101000a81548160ff0219169083151502179055508173ffffffffffffffffffffffffffffffffffffffff168373ffffffffffffffffffffffffffffffffffffffff167f17307eab39ab6107e8899845ad3d59bd9653f200f220920489ca2b5937696c3183604051611e089190612c35565b60405180910390a3505050565b611e20848484611751565b611e2c8484848461223b565b611e6b576040517f08c379a0000000000000000000000000000000000000000000000000000000008152600401611e6290613df4565b60405180910390fd5b50505050565b6060600b8054611e8090613274565b80601f0160208091040260200160405190810160405280929190818152602001828054611eac90613274565b8015611ef95780601f10611ece57610100808354040283529160200191611ef9565b820191906000526020600020905b815481529060010190602001808311611edc57829003601f168201915b5050505050905090565b606060006001611f12846123c2565b01905060008167ffffffffffffffff811115611f3157611f30612ff4565b5b6040519080825280601f01601f191660200182016040528015611f635781602001600182028036833780820191505090505b509050600082602001820190505b600115611fc6578080600190039150507f3031323334353637383961626364656600000000000000000000000000000000600a86061a8153600a8581611fba57611fb9613e14565b5b04945060008503611f71575b819350505050919050565b60007f01ffc9a7000000000000000000000000000000000000000000000000000000007bffffffffffffffffffffffffffffffffffffffffffffffffffffffff1916827bffffffffffffffffffffffffffffffffffffffffffffffffffffffff1916149050919050565b60008073ffffffffffffffffffffffffffffffffffffffff1661205d83611aef565b73ffffffffffffffffffffffffffffffffffffffff1614159050919050565b6120868383612515565b612093600084848461223b565b6120d2576040517f08c379a00000000000000000000000000000000000000000000000000000000081526004016120c990613df4565b60405180910390fd5b505050565b6120e384848484612732565b6001811115612127576040517f08c379a000000000000000000000000000000000000000000000000000000000815260040161211e90613eb5565b60405180910390fd5b6000829050600073ffffffffffffffffffffffffffffffffffffffff168573ffffffffffffffffffffffffffffffffffffffff160361216e5761216981612858565b6121ad565b8373ffffffffffffffffffffffffffffffffffffffff168573ffffffffffffffffffffffffffffffffffffffff16146121ac576121ab85826128a1565b5b5b600073ffffffffffffffffffffffffffffffffffffffff168473ffffffffffffffffffffffffffffffffffffffff16036121ef576121ea81612a0e565b61222e565b8473ffffffffffffffffffffffffffffffffffffffff168473ffffffffffffffffffffffffffffffffffffffff161461222d5761222c8482612adf565b5b5b5050505050565b50505050565b600061225c8473ffffffffffffffffffffffffffffffffffffffff16612b5e565b156123b5578373ffffffffffffffffffffffffffffffffffffffff1663150b7a026122856115dd565b8786866040518563ffffffff1660e01b81526004016122a79493929190613f2a565b6020604051808303816000875af19250505080156122e357506040513d601f19601f820116820180604052508101906122e09190613f8b565b60015b612365573d8060008114612313576040519150601f19603f3d011682016040523d82523d6000602084013e612318565b606091505b50600081510361235d576040517f08c379a000000000000000000000000000000000000000000000000000000000815260040161235490613df4565b60405180910390fd5b805181602001fd5b63150b7a0260e01b7bffffffffffffffffffffffffffffffffffffffffffffffffffffffff1916817bffffffffffffffffffffffffffffffffffffffffffffffffffffffff1916149150506123ba565b600190505b949350505050565b600080600090507a184f03e93ff9f4daa797ed6e38ed64bf6a1f0100000000000000008310612420577a184f03e93ff9f4daa797ed6e38ed64bf6a1f010000000000000000838161241657612415613e14565b5b0492506040810190505b6d04ee2d6d415b85acef8100000000831061245d576d04ee2d6d415b85acef8100000000838161245357612452613e14565b5b0492506020810190505b662386f26fc10000831061248c57662386f26fc10000838161248257612481613e14565b5b0492506010810190505b6305f5e10083106124b5576305f5e10083816124ab576124aa613e14565b5b0492506008810190505b61271083106124da5761271083816124d0576124cf613e14565b5b0492506004810190505b606483106124fd57606483816124f3576124f2613e14565b5b0492506002810190505b600a831061250c576001810190505b80915050919050565b600073ffffffffffffffffffffffffffffffffffffffff168273ffffffffffffffffffffffffffffffffffffffff1603612584576040517f08c379a000000000000000000000000000000000000000000000000000000000815260040161257b90614004565b60405180910390fd5b61258d8161203b565b156125cd576040517f08c379a00000000000000000000000000000000000000000000000000000000081526004016125c490614070565b60405180910390fd5b6125db6000838360016120d7565b6125e48161203b565b15612624576040517f08c379a000000000000000000000000000000000000000000000000000000000815260040161261b90614070565b60405180910390fd5b6001600360008473ffffffffffffffffffffffffffffffffffffffff1673ffffffffffffffffffffffffffffffffffffffff16815260200190815260200160002060008282540192505081905550816002600083815260200190815260200160002060006101000a81548173ffffffffffffffffffffffffffffffffffffffff021916908373ffffffffffffffffffffffffffffffffffffffff160217905550808273ffffffffffffffffffffffffffffffffffffffff16600073ffffffffffffffffffffffffffffffffffffffff167fddf252ad1be2c89b69c2b068fc378daa952ba7f163c4a11628f55a4df523b3ef60405160405180910390a461272e600083836001612235565b5050565b600181111561285257600073ffffffffffffffffffffffffffffffffffffffff168473ffffffffffffffffffffffffffffffffffffffff16146127c65780600360008673ffffffffffffffffffffffffffffffffffffffff1673ffffffffffffffffffffffffffffffffffffffff16815260200190815260200160002060008282546127be9190614090565b925050819055505b600073ffffffffffffffffffffffffffffffffffffffff168373ffffffffffffffffffffffffffffffffffffffff16146128515780600360008573ffffffffffffffffffffffffffffffffffffffff1673ffffffffffffffffffffffffffffffffffffffff16815260200190815260200160002060008282546128499190613211565b925050819055505b5b50505050565b6008805490506009600083815260200190815260200160002081905550600881908060018154018082558091505060019003906000526020600020016000909190919091505550565b600060016128ae84611b2c565b6128b89190614090565b905060006007600084815260200190815260200160002054905081811461299d576000600660008673ffffffffffffffffffffffffffffffffffffffff1673ffffffffffffffffffffffffffffffffffffffff168152602001908152602001600020600084815260200190815260200160002054905080600660008773ffffffffffffffffffffffffffffffffffffffff1673ffffffffffffffffffffffffffffffffffffffff168152602001908152602001600020600084815260200190815260200160002081905550816007600083815260200190815260200160002081905550505b6007600084815260200190815260200160002060009055600660008573ffffffffffffffffffffffffffffffffffffffff1673ffffffffffffffffffffffffffffffffffffffff16815260200190815260200160002060008381526020019081526020016000206000905550505050565b60006001600880549050612a229190614090565b9050600060096000848152602001908152602001600020549050600060088381548110612a5257612a5161374f565b5b906000526020600020015490508060088381548110612a7457612a7361374f565b5b906000526020600020018190555081600960008381526020019081526020016000208190555060096000858152602001908152602001600020600090556008805480612ac357612ac26140c4565b5b6001900381819060005260206000200160009055905550505050565b6000612aea83611b2c565b905081600660008573ffffffffffffffffffffffffffffffffffffffff1673ffffffffffffffffffffffffffffffffffffffff168152602001908152602001600020600083815260200190815260200160002081905550806007600084815260200190815260200160002081905550505050565b6000808273ffffffffffffffffffffffffffffffffffffffff163b119050919050565b6000604051905090565b600080fd5b600080fd5b60007fffffffff0000000000000000000000000000000000000000000000000000000082169050919050565b612bca81612b95565b8114612bd557600080fd5b50565b600081359050612be781612bc1565b92915050565b600060208284031215612c0357612c02612b8b565b5b6000612c1184828501612bd8565b91505092915050565b60008115159050919050565b612c2f81612c1a565b82525050565b6000602082019050612c4a6000830184612c26565b92915050565b600081519050919050565b600082825260208201905092915050565b60005b83811015612c8a578082015181840152602081019050612c6f565b60008484015250505050565b6000601f19601f8301169050919050565b6000612cb282612c50565b612cbc8185612c5b565b9350612ccc818560208601612c6c565b612cd581612c96565b840191505092915050565b60006020820190508181036000830152612cfa8184612ca7565b905092915050565b6000819050919050565b612d1581612d02565b8114612d2057600080fd5b50565b600081359050612d3281612d0c565b92915050565b600060208284031215612d4e57612d4d612b8b565b5b6000612d5c84828501612d23565b91505092915050565b600073ffffffffffffffffffffffffffffffffffffffff82169050919050565b6000612d9082612d65565b9050919050565b612da081612d85565b82525050565b6000602082019050612dbb6000830184612d97565b92915050565b612dca81612d85565b8114612dd557600080fd5b50565b600081359050612de781612dc1565b92915050565b60008060408385031215612e0457612e03612b8b565b5b6000612e1285828601612dd8565b9250506020612e2385828601612d23565b9150509250929050565b612e3681612c1a565b8114612e4157600080fd5b50565b600081359050612e5381612e2d565b92915050565b600060208284031215612e6f57612e6e612b8b565b5b6000612e7d84828501612e44565b91505092915050565b612e8f81612d02565b82525050565b6000602082019050612eaa6000830184612e86565b92915050565b600080600060608486031215612ec957612ec8612b8b565b5b6000612ed786828701612dd8565b9350506020612ee886828701612dd8565b9250506040612ef986828701612d23565b9150509250925092565b600060208284031215612f1957612f18612b8b565b5b6000612f2784828501612dd8565b91505092915050565b6000819050919050565b6000612f55612f50612f4b84612d65565b612f30565b612d65565b9050919050565b6000612f6782612f3a565b9050919050565b6000612f7982612f5c565b9050919050565b612f8981612f6e565b82525050565b6000602082019050612fa46000830184612f80565b92915050565b60008060408385031215612fc157612fc0612b8b565b5b6000612fcf85828601612dd8565b9250506020612fe085828601612e44565b9150509250929050565b600080fd5b600080fd5b7f4e487b7100000000000000000000000000000000000000000000000000000000600052604160045260246000fd5b61302c82612c96565b810181811067ffffffffffffffff8211171561304b5761304a612ff4565b5b80604052505050565b600061305e612b81565b905061306a8282613023565b919050565b600067ffffffffffffffff82111561308a57613089612ff4565b5b61309382612c96565b9050602081019050919050565b82818337600083830152505050565b60006130c26130bd8461306f565b613054565b9050828152602081018484840111156130de576130dd612fef565b5b6130e98482856130a0565b509392505050565b600082601f83011261310657613105612fea565b5b81356131168482602086016130af565b91505092915050565b6000806000806080858703121561313957613138612b8b565b5b600061314787828801612dd8565b945050602061315887828801612dd8565b935050604061316987828801612d23565b925050606085013567ffffffffffffffff81111561318a57613189612b90565b5b613196878288016130f1565b91505092959194509250565b600080604083850312156131b9576131b8612b8b565b5b60006131c785828601612dd8565b92505060206131d885828601612dd8565b9150509250929050565b7f4e487b7100000000000000000000000000000000000000000000000000000000600052601160045260246000fd5b600061321c82612d02565b915061322783612d02565b925082820190508082111561323f5761323e6131e2565b5b92915050565b7f4e487b7100000000000000000000000000000000000000000000000000000000600052602260045260246000fd5b6000600282049050600182168061328c57607f821691505b60208210810361329f5761329e613245565b5b50919050565b7f4552433732313a20617070726f76616c20746f2063757272656e74206f776e6560008201527f7200000000000000000000000000000000000000000000000000000000000000602082015250565b6000613301602183612c5b565b915061330c826132a5565b604082019050919050565b60006020820190508181036000830152613330816132f4565b9050919050565b7f4552433732313a20617070726f76652063616c6c6572206973206e6f7420746f60008201527f6b656e206f776e6572206f7220617070726f76656420666f7220616c6c000000602082015250565b6000613393603d83612c5b565b915061339e82613337565b604082019050919050565b600060208201905081810360008301526133c281613386565b9050919050565b7f436f6e74726163742063757272656e746c792070617573656400000000000000600082015250565b60006133ff601983612c5b565b915061340a826133c9565b602082019050919050565b6000602082019050818103600083015261342e816133f2565b9050919050565b7f50726573616c6520686173206e6f7420656e6465642079657400000000000000600082015250565b600061346b601983612c5b565b915061347682613435565b602082019050919050565b6000602082019050818103600083015261349a8161345e565b9050919050565b7f457863656564206d6178696d756d20544b204465767320737570706c79000000600082015250565b60006134d7601d83612c5b565b91506134e2826134a1565b602082019050919050565b60006020820190508181036000830152613506816134ca565b9050919050565b7f45746865722073656e74206973206e6f7420636f727265637400000000000000600082015250565b6000613543601983612c5b565b915061354e8261350d565b602082019050919050565b6000602082019050818103600083015261357281613536565b9050919050565b7f4552433732313a2063616c6c6572206973206e6f7420746f6b656e206f776e6560008201527f72206f7220617070726f76656400000000000000000000000000000000000000602082015250565b60006135d5602d83612c5b565b91506135e082613579565b604082019050919050565b60006020820190508181036000830152613604816135c8565b9050919050565b600081905092915050565b50565b600061362660008361360b565b915061363182613616565b600082019050919050565b600061364782613619565b9150819050919050565b7f4661696c656420746f2073656e64204574686572000000000000000000000000600082015250565b6000613687601483612c5b565b915061369282613651565b602082019050919050565b600060208201905081810360008301526136b68161367a565b9050919050565b7f455243373231456e756d657261626c653a20676c6f62616c20696e646578206f60008201527f7574206f6620626f756e64730000000000000000000000000000000000000000602082015250565b6000613719602c83612c5b565b9150613724826136bd565b604082019050919050565b600060208201905081810360008301526137488161370c565b9050919050565b7f4e487b7100000000000000000000000000000000000000000000000000000000600052603260045260246000fd5b7f50726573616c65206973206e6f742072756e6e696e6700000000000000000000600082015250565b60006137b4601683612c5b565b91506137bf8261377e565b602082019050919050565b600060208201905081810360008301526137e3816137a7565b9050919050565b6000815190506137f981612e2d565b92915050565b60006020828403121561381557613814612b8b565b5b6000613823848285016137ea565b91505092915050565b7f596f7520617265206e6f742077686974656c6973746564000000000000000000600082015250565b6000613862601783612c5b565b915061386d8261382c565b602082019050919050565b6000602082019050818103600083015261389181613855565b9050919050565b7f4578636565646564206d6178696d756d20544b204465767320737570706c7900600082015250565b60006138ce601f83612c5b565b91506138d982613898565b602082019050919050565b600060208201905081810360008301526138fd816138c1565b9050919050565b7f4552433732313a20696e76616c696420746f6b656e2049440000000000000000600082015250565b600061393a601883612c5b565b915061394582613904565b602082019050919050565b600060208201905081810360008301526139698161392d565b9050919050565b600081905092915050565b600061398682612c50565b6139908185613970565b93506139a0818560208601612c6c565b80840191505092915050565b60006139b8828561397b565b91506139c4828461397b565b91508190509392505050565b7f4f776e61626c653a206e6577206f776e657220697320746865207a65726f206160008201527f6464726573730000000000000000000000000000000000000000000000000000602082015250565b6000613a2c602683612c5b565b9150613a37826139d0565b604082019050919050565b60006020820190508181036000830152613a5b81613a1f565b9050919050565b7f4f776e61626c653a2063616c6c6572206973206e6f7420746865206f776e6572600082015250565b6000613a98602083612c5b565b9150613aa382613a62565b602082019050919050565b60006020820190508181036000830152613ac781613a8b565b9050919050565b7f4552433732313a207472616e736665722066726f6d20696e636f72726563742060008201527f6f776e6572000000000000000000000000000000000000000000000000000000602082015250565b6000613b2a602583612c5b565b9150613b3582613ace565b604082019050919050565b60006020820190508181036000830152613b5981613b1d565b9050919050565b7f4552433732313a207472616e7366657220746f20746865207a65726f2061646460008201527f7265737300000000000000000000000000000000000000000000000000000000602082015250565b6000613bbc602483612c5b565b9150613bc782613b60565b604082019050919050565b60006020820190508181036000830152613beb81613baf565b9050919050565b7f455243373231456e756d657261626c653a206f776e657220696e646578206f7560008201527f74206f6620626f756e6473000000000000000000000000000000000000000000602082015250565b6000613c4e602b83612c5b565b9150613c5982613bf2565b604082019050919050565b60006020820190508181036000830152613c7d81613c41565b9050919050565b7f4552433732313a2061646472657373207a65726f206973206e6f74206120766160008201527f6c6964206f776e65720000000000000000000000000000000000000000000000602082015250565b6000613ce0602983612c5b565b9150613ceb82613c84565b604082019050919050565b60006020820190508181036000830152613d0f81613cd3565b9050919050565b7f4552433732313a20617070726f766520746f2063616c6c657200000000000000600082015250565b6000613d4c601983612c5b565b9150613d5782613d16565b602082019050919050565b60006020820190508181036000830152613d7b81613d3f565b9050919050565b7f4552433732313a207472616e7366657220746f206e6f6e20455243373231526560008201527f63656976657220696d706c656d656e7465720000000000000000000000000000602082015250565b6000613dde603283612c5b565b9150613de982613d82565b604082019050919050565b60006020820190508181036000830152613e0d81613dd1565b9050919050565b7f4e487b7100000000000000000000000000000000000000000000000000000000600052601260045260246000fd5b7f455243373231456e756d657261626c653a20636f6e736563757469766520747260008201527f616e7366657273206e6f7420737570706f727465640000000000000000000000602082015250565b6000613e9f603583612c5b565b9150613eaa82613e43565b604082019050919050565b60006020820190508181036000830152613ece81613e92565b9050919050565b600081519050919050565b600082825260208201905092915050565b6000613efc82613ed5565b613f068185613ee0565b9350613f16818560208601612c6c565b613f1f81612c96565b840191505092915050565b6000608082019050613f3f6000830187612d97565b613f4c6020830186612d97565b613f596040830185612e86565b8181036060830152613f6b8184613ef1565b905095945050505050565b600081519050613f8581612bc1565b92915050565b600060208284031215613fa157613fa0612b8b565b5b6000613faf84828501613f76565b91505092915050565b7f4552433732313a206d696e7420746f20746865207a65726f2061646472657373600082015250565b6000613fee602083612c5b565b9150613ff982613fb8565b602082019050919050565b6000602082019050818103600083015261401d81613fe1565b9050919050565b7f4552433732313a20746f6b656e20616c7265616479206d696e74656400000000600082015250565b600061405a601c83612c5b565b915061406582614024565b602082019050919050565b600060208201905081810360008301526140898161404d565b9050919050565b600061409b82612d02565b91506140a683612d02565b92508282039050818111156140be576140bd6131e2565b5b92915050565b7f4e487b7100000000000000000000000000000000000000000000000000000000600052603160045260246000fdfea264697066735822122020827b263cf0f15b86d21f0b4804db7b8f0858d88a669ac3257985f7f57eb01564736f6c63430008110033",
  "devdoc": {
    "kind": "dev",
    "methods": {
      "approve(address,uint256)": {
        "details": "See {IERC721-approve}."
      },
      "constructor": {
        "details": "ERC721 constructor takes in a `name` and a `symbol` to the token collection. name in our case is `TK Devs` and symbol is `CD`. Constructor for TK Devs takes in the baseURI to set _baseTokenURI for the collection. It also initializes an instance of whitelist interface."
      },
      "getApproved(uint256)": {
        "details": "See {IERC721-getApproved}."
      },
      "isApprovedForAll(address,address)": {
        "details": "See {IERC721-isApprovedForAll}."
      },
      "mint()": {
        "details": "mint allows a user to mint 1 NFT per transaction after the presale has ended."
      },
      "name()": {
        "details": "See {IERC721Metadata-name}."
      },
      "owner()": {
        "details": "Returns the address of the current owner."
      },
      "ownerOf(uint256)": {
        "details": "See {IERC721-ownerOf}."
      },
      "presaleMint()": {
        "details": "presaleMint allows a user to mint one NFT per transaction during the presale."
      },
      "renounceOwnership()": {
        "details": "Leaves the contract without owner. It will not be possible to call `onlyOwner` functions anymore. Can only be called by the current owner. NOTE: Renouncing ownership will leave the contract without an owner, thereby removing any functionality that is only available to the owner."
      },
      "safeTransferFrom(address,address,uint256)": {
        "details": "See {IERC721-safeTransferFrom}."
      },
      "safeTransferFrom(address,address,uint256,bytes)": {
        "details": "See {IERC721-safeTransferFrom}."
      },
      "setApprovalForAll(address,bool)": {
        "details": "See {IERC721-setApprovalForAll}."
      },
      "setPaused(bool)": {
        "details": "setPaused makes the contract paused or unpaused"
      },
      "startPresale()": {
        "details": "startPresale starts a presale for the whitelisted addresses"
      },
      "supportsInterface(bytes4)": {
        "details": "See {IERC165-supportsInterface}."
      },
      "symbol()": {
        "details": "See {IERC721Metadata-symbol}."
      },
      "tokenByIndex(uint256)": {
        "details": "See {IERC721Enumerable-tokenByIndex}."
      },
      "tokenURI(uint256)": {
        "details": "See {IERC721Metadata-tokenURI}."
      },
      "totalSupply()": {
        "details": "See {IERC721Enumerable-totalSupply}."
      },
      "transferFrom(address,address,uint256)": {
        "details": "See {IERC721-transferFrom}."
      },
      "transferOwnership(address)": {
        "details": "Transfers ownership of the contract to a new account (`newOwner`). Can only be called by the current owner."
      },
      "withdraw()": {
        "details": "withdraw sends all the ether in the contract to the owner of the contract"
      }
    },
    "stateVariables": {
      "_baseTokenURI": {
        "details": "_baseTokenURI for computing {tokenURI}. If set, the resulting URI for each token will be the concatenation of the `baseURI` and the `tokenId`."
      }
    },
    "version": 1
  },
  "userdoc": {
    "kind": "user",
    "methods": {},
    "version": 1
  },
  "storageLayout": {
    "storage": [
      {
        "astId": 828,
        "contract": "contracts/core/TKDevs.sol:TKDevs",
        "label": "_name",
        "offset": 0,
        "slot": "0",
        "type": "t_string_storage"
      },
      {
        "astId": 830,
        "contract": "contracts/core/TKDevs.sol:TKDevs",
        "label": "_symbol",
        "offset": 0,
        "slot": "1",
        "type": "t_string_storage"
      },
      {
        "astId": 834,
        "contract": "contracts/core/TKDevs.sol:TKDevs",
        "label": "_owners",
        "offset": 0,
        "slot": "2",
        "type": "t_mapping(t_uint256,t_address)"
      },
      {
        "astId": 838,
        "contract": "contracts/core/TKDevs.sol:TKDevs",
        "label": "_balances",
        "offset": 0,
        "slot": "3",
        "type": "t_mapping(t_address,t_uint256)"
      },
      {
        "astId": 842,
        "contract": "contracts/core/TKDevs.sol:TKDevs",
        "label": "_tokenApprovals",
        "offset": 0,
        "slot": "4",
        "type": "t_mapping(t_uint256,t_address)"
      },
      {
        "astId": 848,
        "contract": "contracts/core/TKDevs.sol:TKDevs",
        "label": "_operatorApprovals",
        "offset": 0,
        "slot": "5",
        "type": "t_mapping(t_address,t_mapping(t_address,t_bool))"
      },
      {
        "astId": 1896,
        "contract": "contracts/core/TKDevs.sol:TKDevs",
        "label": "_ownedTokens",
        "offset": 0,
        "slot": "6",
        "type": "t_mapping(t_address,t_mapping(t_uint256,t_uint256))"
      },
      {
        "astId": 1900,
        "contract": "contracts/core/TKDevs.sol:TKDevs",
        "label": "_ownedTokensIndex",
        "offset": 0,
        "slot": "7",
        "type": "t_mapping(t_uint256,t_uint256)"
      },
      {
        "astId": 1903,
        "contract": "contracts/core/TKDevs.sol:TKDevs",
        "label": "_allTokens",
        "offset": 0,
        "slot": "8",
        "type": "t_array(t_uint256)dyn_storage"
      },
      {
        "astId": 1907,
        "contract": "contracts/core/TKDevs.sol:TKDevs",
        "label": "_allTokensIndex",
        "offset": 0,
        "slot": "9",
        "type": "t_mapping(t_uint256,t_uint256)"
      },
      {
        "astId": 7,
        "contract": "contracts/core/TKDevs.sol:TKDevs",
        "label": "_owner",
        "offset": 0,
        "slot": "10",
        "type": "t_address"
      },
      {
        "astId": 3736,
        "contract": "contracts/core/TKDevs.sol:TKDevs",
        "label": "_baseTokenURI",
        "offset": 0,
        "slot": "11",
        "type": "t_string_storage"
      },
      {
        "astId": 3739,
        "contract": "contracts/core/TKDevs.sol:TKDevs",
        "label": "_price",
        "offset": 0,
        "slot": "12",
        "type": "t_uint256"
      },
      {
        "astId": 3741,
        "contract": "contracts/core/TKDevs.sol:TKDevs",
        "label": "_paused",
        "offset": 0,
        "slot": "13",
        "type": "t_bool"
      },
      {
        "astId": 3744,
        "contract": "contracts/core/TKDevs.sol:TKDevs",
        "label": "maxTokenIds",
        "offset": 0,
        "slot": "14",
        "type": "t_uint256"
      },
      {
        "astId": 3746,
        "contract": "contracts/core/TKDevs.sol:TKDevs",
        "label": "tokenIds",
        "offset": 0,
        "slot": "15",
        "type": "t_uint256"
      },
      {
        "astId": 3749,
        "contract": "contracts/core/TKDevs.sol:TKDevs",
        "label": "whitelist",
        "offset": 0,
        "slot": "16",
        "type": "t_contract(IWhitelist)4436"
      },
      {
        "astId": 3751,
        "contract": "contracts/core/TKDevs.sol:TKDevs",
        "label": "presaleStarted",
        "offset": 20,
        "slot": "16",
        "type": "t_bool"
      },
      {
        "astId": 3753,
        "contract": "contracts/core/TKDevs.sol:TKDevs",
        "label": "presaleEnded",
        "offset": 0,
        "slot": "17",
        "type": "t_uint256"
      }
    ],
    "types": {
      "t_address": {
        "encoding": "inplace",
        "label": "address",
        "numberOfBytes": "20"
      },
      "t_array(t_uint256)dyn_storage": {
        "base": "t_uint256",
        "encoding": "dynamic_array",
        "label": "uint256[]",
        "numberOfBytes": "32"
      },
      "t_bool": {
        "encoding": "inplace",
        "label": "bool",
        "numberOfBytes": "1"
      },
      "t_contract(IWhitelist)4436": {
        "encoding": "inplace",
        "label": "contract IWhitelist",
        "numberOfBytes": "20"
      },
      "t_mapping(t_address,t_bool)": {
        "encoding": "mapping",
        "key": "t_address",
        "label": "mapping(address => bool)",
        "numberOfBytes": "32",
        "value": "t_bool"
      },
      "t_mapping(t_address,t_mapping(t_address,t_bool))": {
        "encoding": "mapping",
        "key": "t_address",
        "label": "mapping(address => mapping(address => bool))",
        "numberOfBytes": "32",
        "value": "t_mapping(t_address,t_bool)"
      },
      "t_mapping(t_address,t_mapping(t_uint256,t_uint256))": {
        "encoding": "mapping",
        "key": "t_address",
        "label": "mapping(address => mapping(uint256 => uint256))",
        "numberOfBytes": "32",
        "value": "t_mapping(t_uint256,t_uint256)"
      },
      "t_mapping(t_address,t_uint256)": {
        "encoding": "mapping",
        "key": "t_address",
        "label": "mapping(address => uint256)",
        "numberOfBytes": "32",
        "value": "t_uint256"
      },
      "t_mapping(t_uint256,t_address)": {
        "encoding": "mapping",
        "key": "t_uint256",
        "label": "mapping(uint256 => address)",
        "numberOfBytes": "32",
        "value": "t_address"
      },
      "t_mapping(t_uint256,t_uint256)": {
        "encoding": "mapping",
        "key": "t_uint256",
        "label": "mapping(uint256 => uint256)",
        "numberOfBytes": "32",
        "value": "t_uint256"
      },
      "t_string_storage": {
        "encoding": "bytes",
        "label": "string",
        "numberOfBytes": "32"
      },
      "t_uint256": {
        "encoding": "inplace",
        "label": "uint256",
        "numberOfBytes": "32"
      }
    }
  }
}